:100000000FC029C028C027C026C025C024C023C0D7
:1000100022C021C020C01FC01EC060C01CC01BC0A9
:1000200011271FBFCFE5D0E0DEBFCDBF20E0A0E4A9
:10003000B0E0E2E7F1E402C031913D93A234B207AF
:10004000D9F720E0A2E4B0E001C01D93A935B207C2
:10005000E1F703D08CC0D4CF15C0FEDF789440E127
:10006000E2E4F0E0AE2FBF2F1D934A95E9F75AD096
:1000700082A958D083A9F3CF2B983B982A9A3A9813
:10008000329864C047E045BF41B111B943B14FEF69
:1000900043B945B1407F45B947B14F6047B9089A68
:1000A0001898109840E068ED86E390E002D01ABFFF
:1000B000E3CFE82FF92F6CBF4083089548B1E4A344
:1000C000EF5FE37053A3E51741F0E4ABF0E0EB5AC8
:1000D000FF4F408342A34F5F42AB08951F930F939E
:1000E0000FB70F9310E04F935F936F937F938F93AE
:1000F0009F93AF93BF93EF93FF93E0A1F1A1E1171B
:10010000F10709F00995FF91EF91BF91AF919F9190
:100110008F917F916F915F914F910F910FBF0F91D1
:100120001F91189542A34423E9F3E3A3EF5FE37023
:10013000E3AB0FB7F8940F9342A3415042AB0F913A
:100140000FBFF0E0EB5AFF4F8081089545B74B7F1A
:1001500045BF1AB943E349B91EB940E94DB946E074
:100160004CB91BB913AB14AB12AB80E00895F894F3
:02017000FFCFBF
:020172005E002D
:00000001FF
