S013000065726173655F756172745F2E7372656387
S11300000FC029C028C027C026C025C024C023C0D3
S113001022C021C020C01FC01EC070C01CC01BC095
S113002011271FBFCFE5D0E0DEBFCDBF20E0A0E4A5
S1130030B0E0EFEAF1E402C031913D93A234B2079B
S1130040D9F720E0A2E4B0E001C01D93AD35B207BA
S1130050E1F704D0A9C0D4CF23D00895FDDF78946C
S113006040E1E2E4F0E0AE2FBF2F1D934A95E9F79B
S113007069D082A967D083A942E050E062E470E0CD
S11300808CEA91E481D0892B11F4109AE9CF10986D
S1130090E7CF2B983B982A9A3A98329867D00895DC
S11300A047E045BF41B111B943B14FEF43B945B141
S11300B0407F45B947B14F6047B9089A18981098DE
S11300C040E068ED86E390E004D01ABF7894E1DF65
S11300D00895E82FF92F6CBF4083089558B1E4A325
S11300E0EF5FE77043A3E41741F0E4ABF0E0EB5AB1
S11300F0FF4F508342A34F5F42AB08951F930F936A
S11301000FB70F9310E04F935F936F937F938F9389
S11301109F93AF93BF93EF93FF93E0A1F1A1E117F6
S1130120F10709F00995FF91EF91BF91AF919F916C
S11301308F917F916F915F914F910F910FBF0F91AD
S11301401F91189542A34423E9F3E3A3EF5FE770FB
S1130150E3AB0FB7F8940F9342A3415042AB0F9116
S11301600FBFF0E0EB5AFF4F8081089545B74B7FF6
S113017045BF1AB943E349B91EB940E94DB913ABB8
S113018014AB12AB80E00895E62FF72FA82FB92FF8
S11301904150504030F08D910191801B19F400239F
S10F01A0B9F7881B990B0895F894FFCF61
S10601AC313100EA
S10501AF6E00DC
S9030000FC
