:100000000FC016C015C014C013C012C011C010C05C
:100010000FC00EC00DC00CC00BC00AC009C008C084
:1000200011271FBFCFE5D0E0DEBFCDBF20D0ECC091
:10003000E7CF47B1426047B946B1426046B941B1E6
:10004000406241B941B1416041B908959AB989B955
:1000500048E14DB94EE04CB908954EB145FFFDCF92
:1000600088B908954EB14423ECF788B10895CF9331
:10007000DF93CDB7DEB7C051D10B0FB7F894DEBF19
:100080000FBFCDBFD6DF8CE090E0E0DF42B1406231
:1000900042B946E0ECE0F2E4AC2FBD2FAF5FBF4FBA
:1000A00001910D934A95E1F746E0E2E1F2E4AC2FCD
:1000B000BD2FA95FBF4F01910D934A95E1F7D2DFA4
:1000C000382F8823E1F3CE5FDF4F4881C250D04004
:1000D000C05FDF4F4883C051D040CD5FDF4F2881E4
:1000E000C350D040CE5FDF4F2883C250D040CC5F9A
:1000F000DF4F5881C450D040C35FDF4F5883CD508D
:10010000D040CD5FDF4F5883C350D040CB5FDF4F2F
:100110006881C550D040C25FDF4F6883CE50D04069
:10012000CC5FDF4F6883C450D040CA5FDF4F488147
:10013000C650D040C15FDF4F4883CF50D040CB5F27
:10014000DF4F4883C550D040CA5FDF4F8883C65019
:10015000D04083DFC95FDF4F4881C750D040C05FC8
:10016000DF4F5881C051D0405413A9CFC85FDF4F33
:100170004881C850D0402413A2CFC75FDF4F4881C9
:10018000C950D040C35FDF4F6881CD50D040641369
:1001900096CFC65FDF4F4881CA50D040C25FDF4F65
:1001A0005881CE50D04054138ACFC55FDF4F48816D
:1001B000CB50D040C15FDF4F6881CF50D040641337
:1001C0007ECFC45FDF4F4881CC50D040341377CF0F
:1001D00081E243DF8DE041DF8AE03FDF42B14F7DC6
:1001E00042B942B1416042B94FE75AE166E041503D
:1001F00050406040E1F700C0000042B14E7F42B97C
:0C02000042B1406242B95BCFF894FFCFDE
:0C020C0061616161616141545441434BE8
:00000001FF
