S013000065726173655F756172745F2E7372656387
S11300000FC029C028C027C026C025C024C023C0D3
S113001022C021C020C01FC01EC06FC01CC01BC096
S113002011271FBFCFE5D0E0DEBFCDBF20E0A0E4A5
S1130030B0E0EEEAF1E402C031913D93A234B2079C
S1130040D9F720E0A2E4B0E001C01D93AD35B207BA
S1130050E1F703D0A8C0D4CF23C0FEDF789440E1F9
S1130060E2E4F0E0AE2FBF2F1D934A95E9F769D083
S113007082A967D083A965D084A943E050E062E4F3
S113008070E08AEA91E47FD0892B11F01098E7CFD1
S1130090109AE5CF2B983B982A9A3A98329865C0E3
S11300A047E045BF41B111B943B14FEF43B945B141
S11300B0407F45B947B14F6047B9089A18981098DE
S11300C040E068ED86E390E003D01ABF7894E2CF75
S11300D0E82FF92F6CBF4083089548B1E4A3EF5F84
S11300E0E77053A3E51741F0E4ABF0E0EB5AFF4FA0
S11300F0408342A34F5F42AB08951F930F930FB702
S11301000F9310E04F935F936F937F938F939F931D
S1130110AF93BF93EF93FF93E0A1F1A1E117F10730
S113012009F00995FF91EF91BF91AF919F918F9144
S11301307F916F915F914F910F910FBF0F911F911D
S1130140189542A34423E9F3E3A3EF5FE770E3AB1D
S11301500FB7F8940F9342A3415042AB0F910FBFD6
S1130160F0E0EB5AFF4F8081089545B74B7F45BFC0
S11301701AB943E349B91EB940E94DB913AB14ABFD
S113018012AB80E00895E62FF72FA82FB92F415026
S1130190504030F08D910191801B19F40023B9F780
S10D01A0881B990B0895F894FFCF13
S10701AA41746B002D
S10501AE6D00DE
S9030000FC
